S00F00004B45415F3132382E737265634A
S113000010F4FF1FE913000045140000451400001C
S11300104514000045140000451400004514000078
S11300204514000045140000451400004514000068
S11300304514000045140000451400004514000058
S11300404514000045140000451400004514000048
S11300504514000045140000451400004514000038
S11300604514000045140000451400004514000028
S11300704514000045140000451400004514000018
S11300804514000045140000451400004514000008
S113009045140000451400004911000061110000DE
S11300A06F11000089110000451400004514000080
S11300B045140000451400004514000045140000D8
S113041070B504000D0016003068012802D00228CF
S113042005D00BE0200040B27168884706E0200048
S1130430B1680870B068401CB060FFE72868401CD1
S1130440286070BDFFB584B0002006000498050044
S1130450002028706D1C0698002825D00598006897
S113046001900198002803D130202870761C3FE0C9
S1130470019800283CD00198079900F085FA039070
S113048001980399079A5143401A0700002F03D596
S1130490F8430700313700E0303703980190380003
S11304A028706D1C761CE3E705980068009000989E
S11304B0002803D130202870761C19E00098002809
S11304C016D00098079900F062FA029000980299F9
S11304D0079A5143401A04000A2C01D2303400E038
S11304E0373402980090200028706D1C761CE5E7D4
S11304F0300008B0F0BDF8B507000E0015003C0050
S1130500B44206DA009A29003020FFF781FF641C08
S1130510F6E7F1BDF8B507000E0015003C00B44243
S113052006DA009A29002020FFF772FF641CF6E720
S1130530F1BDF3B595B014000020009016980500A5
S11305400020285602900298002800D1EBE102987E
S1130550252813D002980A2805D0159A69460298CE
S1130560FFF756FF09E0159A69460D20FFF750FF83
S1130570159A69460A20FFF74BFFD2E100200700D5
S1130580002005900598002825D16D1C00202856D0
S1130590202810D0232816D02B2808D02D2802D0AC
S11305A030280CD013E0380001270743EAE738006D
S11305B002270743E6E7380004270743E2E7380049
S11305C008270743DEE7380010270743DAE76D1EE4
S11305D001200590D6E700200190002005900598A1
S11305E0002813D16D1C0020285602900298303840
S11305F0092807D801980A2148430299401830383D
S11306000190ECE76D1E01200590E8E76D1C0020C9
S113061028562E280FD100200590059800280BD1CC
S11306206D1C002028563038092800D8F5E76D1EC7
S113063001200590F1E76D1E6D1C002028564C2802
S113064006D0682802D06C2801D002E002E001E064
S113065000E06D1E6D1C0020285602900298582858
S113066072D0622800D1CCE0632800D118E164285C
S113067013D0692811D06E2800D146E16F2800D12B
S1130680B4E0702800D1C7E0732800D112E17528C6
S113069000D1CCE0782857D03EE12068241D099091
S11306A00A23012209A90CA8FFF7CCFE06000CA816
S11306B0801908900998002803D52D200490761CF1
S11306C00DE0B80703D52B200490761C07E07807CB
S11306D003D520200490761C01E000200490002023
S11306E00690380712D50498002804D0159A694654
S11306F00498FFF78DFE01200690159B6A46019928
S11307003000FFF7F8FE0198060011E0F8070FD457
S1130710159B6A4601993000FFF7FCFE04980028F7
S113072004D0159A69460498FFF772FE01200690DA
S11307300698002807D10498002804D0159A694621
S11307400498FFF765FE92E02068241D03901023AF
S1130750002203A90CA8FFF775FE06000CA8801957
S1130760089000200690380716D5F8060BD5159A80
S113077069463020FFF74CFE159A69467820FFF74A
S113078047FE01200690159B6A4601993000FFF749
S1130790B2FE0198060018E0F80716D4F80600D552
S11307A0B61C159B6A4601993000FFF7B3FEF806A4
S11307B00BD5159A69463020FFF72AFE159A69462B
S11307C07820FFF725FE01200690F8060DD506983F
S11307D000280AD1159A69463020FFF719FE159AA8
S11307E069467820FFF714FEB61C40E02068241DFB
S11307F003900823002203A90CA8FFF723FE060098
S11308001FE02068241D03900223002203A90CA8E2
S1130810FFF718FE060014E02068241D039010233F
S1130820002203A90CA8FFF70DFE060009E02068CA
S1130830241D03900A23002203A90CA8FFF702FE3B
S113084006000CA880190890380708D5159B6A463D
S113085001993000FFF74FFE0198060007E0F80702
S113086005D4159B6A4601993000FFF753FE08989A
S11308700021405600280AD0159A6946089800239A
S1130880C056FFF7C5FD0898401E0890EFE7F8072B
S113089005D5159B6A4601993000FFF73BFE40E001
S11308A02068241D40B20A90159A69460A98FFF7F9
S11308B0AFFD36E02068241D07900798002823D058
S11308C0079800F0BBF80600F80705D4159B6A46A4
S11308D001993000FFF71EFE0798002140560028BA
S11308E00AD0159A694607980023C056FFF790FD71
S11308F00798401C0790EFE7F80705D5159B6A4653
S113090001993000FFF706FE0BE02068241D0B90D0
S113091000980B99086004E0159A69460298FFF75D
S113092077FD6D1C0CE6009817B0F0BD0EB47EB5D3
S11309300500012000900848019007A80600320035
S113094029006846FFF7F5FD0400200003B0039971
S113095070BC04B008470000F3120000F4460028FD
S113096004D4494200F013F8404260474042002951
S113097005D45FD000F00BF8404249426047494239
S113098000F005F84942604703460B43E6D40022D1
S1130990030A8B420BD203098B4219D243088B42C0
S11309A02ED2411A00D20146524110467047FF220E
S11309B009023FD012068B4205D3121209028B4260
S11309C001D31212090203098B4219D300E0090A68
S11309D0C3098B4201D3CB01C01A524183098B4214
S11309E001D38B01C01A524143098B4201D34B01FD
S11309F0C01A524103098B4201D30B01C01A524160
S1130A00C3088B4201D3CB00C01A524183088B42E6
S1130A1001D38B00C01A524143088B4201D34B00CF
S1130A20C01A5241884200D3401A5241CFD20146E3
S1130A301046704708B5C046C04608BD010000E036
S1130A40491C0A78002AFBD1081A704710B5040023
S1130A502000083000F007F9606800F092F8394887
S1130A600078FB2101403748017000BF00BF3748C0
S1130A700078C006FBD4354800784006FBD53248E0
S1130A800078C006C00E30490870304800788021D4
S1130A9001432E48017010BD10B504002000083039
S1130AA000F0E1F8606800F06CF826480078FB215B
S1130AB0014024480170234800788006800E80217C
S1130AC001432048017020480078EF2101401E486E
S1130AD0017000BF00BF1E480078C0B280088007C4
S1130AE0800F0228F7D11A480078C006FBD41648B4
S1130AF00078C006C00E144908701548007880219B
S1130B0001431348017010BD10B5040020000830E3
S1130B1000F0A9F8606800F034F80A480078FB2176
S1130B2001400848017000BF00BF07480078C006B4
S1130B30C00E054908700648007880210143044826
S1130B40017010BD004006400140064004400640CC
S1130B500440064000B50100634A117063490978F6
S1130B60FE220A4080B2010009120B00DB07DB0FF2
S1130B7013435E490B705B4909784906FBD500BDF8
S1130B80000000B50100202936D0FA22120191425A
S1130B9017D0FA22520191420AD0554A914207D005
S1130BA0FA229201914215D0524A91421BD02AE076
S1130BB051490978C7220A40182111434E4A11703D
S1130BC021E04D490978C7220A40102111434A4ABD
S1130BD0117018E048490978C7220A4020211143BE
S1130BE0454A11700FE044490978C7220A40202180
S1130BF01143414A117006E03F490978C7220A406F
S1130C003D490A70FFE700BD10B5040020780228B2
S1130C100BD1207A102101432172207A2021014333
S1130C2021722000FFF712FF1BE02078032807D170
S1130C30207AEF21014021722000FFF765FF10E0C8
S1130C402078052807D1207AEF2101402172200065
S1130C50FFF722FF05E022480078C006C00E2049B5
S1130C60087010BD000000B50021027813009B0736
S1130C70DB0F002B02D00A0002211143027813007B
S1130C80DB07DB0F002B02D00A000421114302789A
S1130C9013001B07DB0F002B02D00A002021114395
S1130CA002781300DB06DB0F002B02D00A001021B0
S1130CB01143027813005B07DB0F002B02D00A00FC
S1130CC0802111430D4A1170027813009B06DB0F3B
S1130CD0002B03D0094A1278D207FBD500BD0000CF
S1130CE001400640044006400240064003400640DE
S1130CF010270000204E000000400640005006402F
S1130D0000B589B003A8142100F0E2F868460C216C
S1130D1000F0DEF800205249088000205149088084
S1130D205820FFF717FF03988021490101430391DD
S1130D3006984D490143069103A800F0CBF8684694
S1130D40007A01210143684601726846007A042151
S1130D50014368460172FA2080010190022069462D
S1130D6008706846FFF750FFC046C04600F002F81E
S1130D7009B000BDF0B583B00024FF2000F01AF9DB
S1130D800500002000F01CF969464871012000F0BC
S1130D9017F90700022000F013F90600032000F001
S1130DA00FF9694608713148FFF7C0FD68460079BC
S1130DB00090F6B23300FFB23A00684641792C48FD
S1130DC0FFF7B4FD82202840822804D101200400CA
S1130DD02848FFF7ABFD82202840022804D10120D7
S1130DE004002548FFF7A2FDA80604D5012004004D
S1130DF02248FFF79BFD680604D501200400204823
S1130E00FFF794FD680704D5012004001D48FFF78F
S1130E108DFDA80404D5012004001B48FFF786FDBE
S1130E20280504D5012004001848FFF77FFD680554
S1130E3004D5012004001648FFF778FDA80504D561
S1130E40012004001348FFF771FDE4B2012C02D025
S1130E501148FFF76BFD1148FFF768FDF7BD00006F
S1130E6008F0FF1F0AF0FF1F00307000901300000D
S1130E70101200005C14000094140000841400009C
S1130E80A0140000141400001C13000050130000F0
S1130E907013000070140000AC1400002C14000047
S1130EA0130030B414001500103902D310393CC0BB
S1130EB0FCD2490700D30CC000D504C0890002D37A
S1130EC00280801C002900D5027030BC70470000ED
S1130ED00022E5E770B50E25290000252A00C0256B
S1130EE0AD012B0000252C0005692C0005682E009F
S1130EF0F604F60F002E01D00225A94305682E0042
S1130F003605F60F002E01D00425A94305682E00EE
S1130F107605F60F002E01D00825A9430578ED07C4
S1130F2003D50D0080210903294305682E007607A7
S1130F30F60F002E03D00D008021C9012943056856
S1130F402E003607F60F002E03D00D008021490134
S1130F50294305682E00B607F60F002E03D00D00B6
S1130F6080210902294305682E00B605F60F002EDC
S1130F7002D00D00202129430D0041794907490F72
S1130F80090429430D000179090629430D0001686C
S1130F9089094907490F0905294385682A00C56855
S1130FA02B00114D2960114D2A60114D2B60114DFC
S1130FB02C6070BD0100104A12680A40100070478E
S1130FC018B401006A460D4B1C6814600A4A126882
S1130FD06B4649B25B5CDA401207120F1000C0B2D4
S1130FE012BC704700000000048004400C800440E0
S1130FF0148004402480044000800440C414000091
S1131000F0B583B02248234988420DD00020040063
S1131010302C09D21F480421614340581C49042242
S113102062438850641CF3E71A4800F045F81A48F4
S113103007001A4805001A4801900198401B040053
S11310402000441E002804D0287838706D1C7F1CB2
S1131050F6E714480600144800900098801B04002A
S11310602000441E002803D000203070761CF7E7CF
S11310700E480F490F4A531A1C0023005C1E002B14
S113108004D00B780370491C401CF6E7F7BD00BF81
S113109000F0FF1F0000000000000000000000003E
S11310A00000000000F0FF1F0CF0FF1F0000000014
S11310B000000000000000000149086070470000C3
S11310C008ED00E01A4A126880239B051343184A6E
S11310D0136049B28A000C231340164A136000229D
S11310E0154B1A600122824092B2144B1A6040B22E
S11310F0C206D20E124B1A60704770B504000E007F
S11311000025310049B2200040B2FFF7DBFF0C4854
S113111000680006FBD50B48006805000848006815
S11311208021884306490860280080B270BD000011
S11311301480044008B0034004B0034018B00340D6
S113114000B0034010B00340164800680121014379
S11311501448016014480068401C13490860704733
S1131160124800680121014310480160704710488B
S11311700068042101430E4801600D4800682021E5
S113118001430B48016070470A4800680421014389
S113119008480160074800682021014305480160B0
S11311A0704700000C71034000F0FF1F1C710340E6
S11311B00890074008A0074030B4144800780D494F
S11311C009780D4A12880D4B1B884006400E040016
S11311D0202020430A4C0B4D2C800B4C094D2C80B5
S11311E0044C2170044C2280044C2380074C207052
S11311F030BC70470120054004200540062005400E
S1131200C520000002200540D92800000020054028
S11312100A2046616D696C6C79204944203D203078
S11312207825782C205375622D66616D696C792060
S11312304944203D20307825782C20526576697306
S1131240696F6E204944203D20307825782C205049
S1131250696E204944203D2030782578200A00001A
S113126080B572B601210420FFF72CFF012105206F
S1131270FFF728FF62B601210420FFF73EFF04496F
S1131280088001210520FFF738FF02490880F2E7B2
S113129004F0FF1F06F0FF1F0A2A2A2A2A64656643
S11312A061756C745F69737220656E7465726564D0
S11312B0206F6E20766563746F722025642A2A2A53
S11312C02A2A0D0A0A00000030B401210022036812
S11312D0001D002B0BD00468001D0C4202D04D46AB
S11312E06D1E64192260241D1B1FF0D0FAE730BC68
S11312F07047704710B5074979441831064C7C444F
S1131300163404E0081D0A68891888470100A142C0
S1131310F8D110BD2C000000380000002053746F79
S113132070204D6F64652041636B6E6F776C6564EC
S11313306765204572726F722052657365740A0086
S113134089FFFFFF0C00000000F0FF1F00000000F9
S1131350204D444D2D41502053797374656D2052B6
S11313606573657420526571756573740A000000B5
S113137020536F6674776172652F535953524553E6
S113138045545245512052657365740A00000000AB
S11313900A0A2D2D53797374656D204C6F672042B2
S11313A04547494E532D2D0A0A0000000120C0462E
S11313B0002801D0FFF79EFF0020C046C046FFF77B
S11313C04FFF00F000F880B500F002F801BD000006
S11313D00746384600F002F8FBE700002021090325
S11313E026311820ABBEF9E700200021002200239B
S11313F0002400250026002762B600F001F8FEE76D
S113140080B5FFF7D9FEFFF7FBFDFFF779FCFFF787
S113141027FFFEE7204C6F7373206F6620436C6FC9
S1131420636B2052657365740A0000000A2D2D5306
S1131430797374656D204C6F6720454E44532D2D90
S11314400A0A000080B5034801680348FFF76EFAF2
S113145001BD000004ED00E09812000020506F77F9
S11314606572204F6E2052657365740A0000000097
S113147020436F7265206C6F636B757020526573C7
S113148065740A002057444F472052657365740AF7
S113149000000000204C56442052657365740A0015
S11314A02050696E2052657365740A0053574420B6
S11314B052657365740A0000C046C046C046C04603
S10B14C0FFF774FF1C1814105F
S90314B92F
